{
  "_format": "hh-sol-artifact-1",
  "contractName": "Drum",
  "sourceName": "contracts/Drum.sol",
  "abi": [
    {
      "inputs": [],
      "stateMutability": "nonpayable",
      "type": "constructor"
    },
    {
      "anonymous": false,
      "inputs": [
        {
          "indexed": false,
          "internalType": "address",
          "name": "sender",
          "type": "address"
        }
      ],
      "name": "DrumFired",
      "type": "event"
    },
    {
      "inputs": [],
      "name": "beat",
      "outputs": [
        {
          "internalType": "uint256",
          "name": "",
          "type": "uint256"
        }
      ],
      "stateMutability": "view",
      "type": "function"
    },
    {
      "inputs": [],
      "name": "drum",
      "outputs": [],
      "stateMutability": "nonpayable",
      "type": "function"
    },
    {
      "inputs": [],
      "name": "owner",
      "outputs": [
        {
          "internalType": "address",
          "name": "",
          "type": "address"
        }
      ],
      "stateMutability": "view",
      "type": "function"
    }
  ],
  "bytecode": "0x60a06040526000805534801561001457600080fd5b503373ffffffffffffffffffffffffffffffffffffffff1660808173ffffffffffffffffffffffffffffffffffffffff1681525050608051610243610063600039600060e401526102436000f3fe608060405234801561001057600080fd5b50600436106100415760003560e01c80632c7fa686146100465780637a259dba146100505780638da5cb5b1461006e575b600080fd5b61004e61008c565b005b6100586100dc565b604051610065919061011f565b60405180910390f35b6100766100e2565b604051610083919061017b565b60405180910390f35b60008081548092919061009e906101c5565b91905055507f58572366b2e0649886a210dbc4798561125e0535d604dff75d973243f0c6923e336040516100d2919061017b565b60405180910390a1565b60005481565b7f000000000000000000000000000000000000000000000000000000000000000081565b6000819050919050565b61011981610106565b82525050565b60006020820190506101346000830184610110565b92915050565b600073ffffffffffffffffffffffffffffffffffffffff82169050919050565b60006101658261013a565b9050919050565b6101758161015a565b82525050565b6000602082019050610190600083018461016c565b92915050565b7f4e487b7100000000000000000000000000000000000000000000000000000000600052601160045260246000fd5b60006101d082610106565b91507fffffffffffffffffffffffffffffffffffffffffffffffffffffffffffffffff820361020257610201610196565b5b60018201905091905056fea2646970667358221220a017ffb7eae1ea1c91261856affc417f0a0641faab3dd62e0d6532fa9c85fedb64736f6c63430008130033",
  "linkReferences": {},
  "deployedLinkReferences": {}
}